:020000040800F2
:1000000098050020A1010008FD1A0008AF1900089A
:10001000F91A0008D90200081D1F0008000000009E
:10002000000000000000000000000000711C00083B
:100030004D03000800000000FF1A0008731C0008B0
:10004000BB010008BB010008BB010008BB010008A0
:10005000BB010008BB010008BB010008BB01000890
:10006000BB010008BB010008BB010008BB01000880
:10007000BB010008BB010008BB010008BB01000870
:10008000BB010008BB010008BB010008BB01000860
:10009000DD020008BB010008BB010008BB0100082D
:1000A000BB010008BB010008BB010008BB01000840
:1000B000BB010008BB010008BB010008BB01000830
:1000C000BB010008BB010008BB010008BB01000820
:1000D000BB010008BB010008BB010008BB01000810
:1000E000BB010008BB010008BB010008BB01000800
:1000F000BB010008BB010008BB010008BB010008F0
:10010000BB010008BB010008BB010008BB010008DF
:10011000BB010008BB010008BB010008BB010008CF
:10012000BB010008BB010008BB010008BB010008BF
:10013000BB010008BB010008BB010008BB010008AF
:10014000ED020008BB010008BB010008BB0100086C
:10015000BB010008BB010008BB010008BB0100088F
:10016000BB010008BB010008BB010008BB0100087F
:10017000BB010008BB010008BB0100080000000033
:10018000BB010008BB010008DFF810D000F092F8B6
:100190000048004709220008AFF3008098050020BE
:1001A0000648804706480047FEE7FEE7FEE7FEE711
:1001B000FEE7FEE7FEE7FEE7FEE7FEE7311D00088B
:1001C000890100082DE9F05F0546002092469B4614
:1001D00088460646814640241BE02846414647465D
:1001E000224600F057F853465A46C01A914110D3A0
:1001F00011461846224600F03EF82D1A67EB01081A
:100200004F4622460120002100F035F817EB000987
:100210004E41201EA4F10104DFDC484631462A4647
:100220004346BDE8F09FD2B201E000F8012B491E21
:10023000FBD270470022F6E710B513460A46044683
:100240001946FFF7F0FF204610BD30B50B460146BA
:1002500000202022012409E021FA02F59D4205D365
:1002600003FA02F5491B04FA02F52844151EA2F10F
:100270000102F1DC30BD202A04DB203A00FA02F151
:10028000002070479140C2F1200320FA03F3194384
:1002900090407047202A04DB203A21FA02F0002126
:1002A000704721FA02F3D040C2F120029140084386
:1002B00019467047064C074D06E0E06840F0010320
:1002C00094E8070098471034AC42F6D3FFF760FF7C
:1002D0000C2400082C24000800BFFEE710B50248DB
:1002E00000F015FA10BD0000C800002010B502484B
:1002F00000F00DFA10BD0000F0000020F8B5074630
:100300000C4615461E464FF400700D49086000204B
:100310008860C86008200861380A0A4908704F7070
:10032000200A8870CC70280A08714D71300A8871D3
:10033000CE716B460A460249034800F01BF8F8BD2F
:100340008001002008000020C8000020704770478E
:1003500090F82020012A07D0022A05D0416A41F4F2
:100360008021416201207047006842691143416168
:100370000020704770B490F82040D0F800C0DCF83E
:1003800008C0012C08D0022C06D0416A41F480211B
:10039000416270BC012070470CF080640CF0006575
:1003A0002C4302D11CF0805F5FD0CCF3016CBCF118
:1003B000020F06D9416A41F40001416270BC01207C
:1003C0007047012404FA0CF41C608B684FF4C0746D
:1003D0009BB1CD6804EB0C162B434D6843EAC50373
:1003E0000568AB514FF4C273066803EB0C130D693B
:1003F000F550097D012909D00DE00D88CB6804EB8B
:100400000C1643EA45530568AB51EBE70168CD583C
:1004100045F48075CD501179D379557941EA03615E
:1004200093791B0443EA052319434FF4C675036807
:1004300005EB0C1559511178D37841EA0361937893
:1004400052781B0443EA022211434FF4C47302683A
:1004500003EB0C13D150016804EB0C100A5842F066
:1004600001020A5070BC00207047416A41F400113B
:10047000416270BC0120704790F82020012A07D00B
:10048000022A05D0416A41F480214162012070476F
:100490004248D0F8002242F00102C0F80022D0F811
:1004A000002222F47C52C0F80022D0F800224B6ACD
:1004B00042EA0322C0F800220A7D012302F01F0253
:1004C00003FA02F2D0F81C329343C0F81C32CB6915
:1004D000D3B9D0F80C329343C0F80C32B1F80CC049
:1004E0004B686CF31F43D1F814C000EBCC0CCCF874
:1004F0004032B1F808C00B686CF31F43D1F814C048
:1005000000EBCC0CCCF84432CB69012B1AD1D0F8DB
:100510000C321343C0F80C32B1F800C04B686CF3D6
:100520001F43D1F814C000EBCC0CCCF84032B1F82A
:1005300008C0CB686CF31F43D1F814C000EBCC0C9F
:10054000CCF844328B697BB1D0F804321343C0F845
:1005500004320B6973B1D0F814321343C0F814326B
:10056000096A01290CD010E0D0F804329343C0F896
:100570000432EEE7D0F814329343C0F81432EFE7B8
:10058000D0F81C121143C0F81C12D0F8001221F050
:100590000101C0F800120020704700000064004014
:1005A000704710B490F820C0BCF1010F09D0BCF125
:1005B000020F06D0416A41F48021416210BC012043
:1005C000704739B1D0F800C0DCF810C01CF0030F40
:1005D0007DD006E0D0F800C0DCF80CC01CF0030FA2
:1005E0007BD04FF4D87C04680CEB011C54F80C4011
:1005F00004F004049460002C7DD0046854F80C408E
:10060000E4085460046854F80CC00CF0020CC2F802
:100610000CC04FF4DA7C04680CEB011C54F80C405D
:1006200004F00F041461046854F80C40C4F3072468
:100630009461046854F80CC04FEA1C4CC2F814C012
:100640004FF4DC72D0F800C002EB01125CF802C07B
:1006500083F800C0D0F800C05CF802C04FEA1C2C40
:1006600083F801C0D0F800C05CF802C04FEA1C4C0F
:1006700083F802C0D0F800C05CF80220120EDA70D5
:100680004FF4DE72D0F800C002EB01125CF802C039
:1006900083F804C0D0F800C05CF802C04FEA1C2CFC
:1006A00083F805C0D0F800C05CF802C04FEA1C4CCB
:1006B00083F806C0D0F800C05CF80220120EDA7190
:1006C000F9B10068016941F02001016102E00BE02D
:1006D00003E010E010BC00207047416A41F40011B3
:1006E000416210BC01207047416A41F4001141622F
:1006F00010BC01207047046854F80C40640D14606D
:1007000080E70068C16841F02001C160DEE72DE9A3
:10071000F05F0546002428684669D0F80490876891
:10072000D0F80CA0D0F810B0D0F8188016F0010F57
:1007300054D017F0010F17D00121816017F0020F7C
:1007400003D0284600F0D4FA0EE017F0040F02D0D0
:100750004FF4006408E017F0080F02D04FF4805403
:1007600002E0284600F0C3FA17F4807F19D0296808
:100770004FF48070886017F4007F03D0284600F0A3
:10078000B9FA0EE017F4806F02D044F4005408E088
:1007900017F4006F02D044F4804402E0284600F0D1
:1007A000A8FA17F4803F19D029684FF48030886088
:1007B00017F4003F03D0284600F09EFA0EE017F42D
:1007C000802F02D044F4004408E017F4002F02D038
:1007D00044F4803402E0284600F08DFA16F0080F49
:1007E00007D01AF0100F04D044F4007429681020C8
:1007F000C86016F0040F4FF0080707D01AF0080F72
:1008000004D02868C760284600F000FA16F0020FEE
:1008100007D02868C06810F0030F02D0284600F007
:10082000F7F916F0400F07D01BF0100F04D044F476
:10083000806429681020086116F0200F07D01BF093
:10084000080F04D028680761284600F01BFA16F04C
:10085000100F07D02868006910F0030F02D0284657
:1008600000F011FA16F4003F08D019F0100F05D06F
:10087000296810204860284600F006FA16F4803FE8
:1008800007D019F0080F04D028684760284600F008
:1008900034FA16F4004F4AD019F0040F44D016F47D
:1008A000807F04D018F0010F01D044F0010416F449
:1008B000007F04D018F0020F01D044F0020416F4B7
:1008C000806F04D018F0040F01D044F0040416F433
:1008D000006F29D018F0700F26D008F07000402863
:1008E00015D006DC102809D020280AD0302816D1CF
:1008F0000AE050280ED0602811D10EE044F0080420
:100900000DE044F010040AE044F0200407E044F055
:10091000400404E044F0800401E044F4807428685A
:10092000816921F070018161296804204860002CF0
:1009300005D0686A204368622846FFF731FEBDE8AB
:10094000F09F70B50446002C03D094F8200010B13D
:1009500004E0012070BD204600F0A8F8206801687E
:1009600041F00101016000F0F3FA0546206840689B
:100970004FF0050610F0010F11D100F0E9FA401B0D
:100980000A2807D9606A40F40030606284F8206069
:10099000012070BD2068406810F0010FEDD0206884
:1009A000016821F00201016000F0D2FA05462068DA
:1009B000406810F0020F11D000F0CAFA401B0A285C
:1009C00007D9606A40F40030606284F8206001203A
:1009D00070BD2068406810F0020FEDD1207E012824
:1009E0003FD02068016821F080010160607E01280D
:1009F0003DD02068016821F040010160A07E0128FF
:100A00003BD02068016821F020010160E07E0128D0
:100A100039D02068016841F010010160207F012871
:100A200037D02068016821F008010160607F01284B
:100A300035D02068016821F004010160E168A068F8
:100A4000626908432169114308436168491E0843EC
:100A50002168C86100206062012084F82000002025
:100A600070BD2068016841F080010160BEE7206828
:100A7000016841F040010160C0E72068016841F071
:100A800020010160C2E72068016821F010010160C7
:100A9000C4E72068016841F008010160C6E72068EA
:100AA000016841F004010160C8E7000010B586B09C
:100AB0000446142101A8FFF7BDFB4E492068884277
:100AC00041D14D480068401C4B4908600846006809
:100AD00001280FD100BF002000904848006840F076
:100AE0000070464908600846006800F000700090F9
:100AF00000BF00BF00BF00200090404810380068D1
:100B000040F008003D49103908600846006800F0D0
:100B10000800009000BF00BF032001900220029057
:100B200000200390032004900920059001A9344877
:100B300000F0F8F800221146142000F085FA142085
:100B400000F074FA54E02F492068884250D100BF69
:100B5000002000902948006840F080602749086024
:100B60000846006800F08060009000BF00BF224887
:100B70000068401C204908600846006801280FD121
:100B800000BF002000901D48006840F000701B4925
:100B900008600846006800F00070009000BF00BFC9
:100BA00000BF0020009015481038006840F0020097
:100BB0001249103908600846006800F002000090F1
:100BC00000BF00BF6020019002200290002003902F
:100BD000032004900920059001A90B4800F0A2F819
:100BE00000221146402000F02FFA402000F01EFAAB
:100BF00006B010BD006400400000002040380240F4
:100C0000000C0240006800400004024070470000F1
:100C100010B58AB0044601AB03AA00212046FFF7B5
:100C2000C0FC0398A0F2012028BB1548008800B240
:100C3000134908819DF805009DF8041040EA012041
:100C40000F4908809DF807009DF8061040EA012032
:100C500000B20B4948809DF809009DF8081040EA51
:100C6000012000B2064988809DF80A008871084674
:100C700001F08AFB00E000BF00BF0AB010BD000019
:100C80005C01002070477047704770B5044694F8C7
:100C90002000012805D0606A40F400206062012035
:100CA00070BD022084F820002068016821F0010155
:100CB000016000F04DF905462068406810F0010F12
:100CC00012D000F045F9401B0A2808D9606A40F4A8
:100CD00000306062052084F82000012070BD20688B
:100CE000406810F0010FECD10020606270BD7047C9
:100CF00070477047704770477047704770B504463B
:100D000000F026F90546B4F1FF3F02D00448007810
:100D1000044400F01DF9401BA042FAD370BD00004E
:100D2000100000202DE9F84F0022DFF818A2DFF8AC
:100D300010924FF0010E03274FF00F08AAF1040B99
:100D40000EFA02FC0B6803EA0C0363457DD10C79B3
:100D500004F00304012C01D0022C14D18568540046
:100D600007FA04F6B543CE6806FA04F42C4384600F
:100D7000446824EA0C0C0C79C4F30014944044EA4F
:100D80000C0CC0F804C0D1F804C037EA0C0C0CD02D
:100D9000C4684FEA420C07FA0CF5AC438D6805FABB
:100DA0000CFC4CEA040CC0F80CC091F804C00CF028
:100DB000030CBCF1020F12D14FEAD20C00EB8C04F1
:100DC000256A4FEA427C4FEADC6C08FA0CF6B54320
:100DD0000E6906FA0CFC4CEA050CC4F820C0046845
:100DE0004FEA420C07FA0CF5AC430D7905F0030508
:100DF00005FA0CFC4CEA040CC0F800C0D1F804C0A1
:100E00001CF4403F7DD0D9F800C04CF4804CC9F8A8
:100E100000C0D9F800C00CF4804CCDF800C022F01E
:100E2000030C0CF1804505F59835D5F808C89407F2
:100E3000240F08FA04F62CEA0606A0F1804CBCF553
:100E4000003C64D0A0F1804C00E05AE0BCF5013CCD
:100E500060D0A0F1804CBCF5023C5ED0A0F1804C8B
:100E6000BCF5033C5CD0A0F1804CBCF5043C5AD0EE
:100E7000A0F1804CBCF5053C58D0A0F1804CBCF5ED
:100E8000063C56D0A0F1804CBCF5073C54D04FF046
:100E9000080C0CFA04FC4CEA060CC5F808C8DAF891
:100EA00000C02CEA030C4C6814F4801F01D04CEAFB
:100EB000030CCAF800C0244CD4F800C02CEA030C80
:100EC0004D6815F4001F01D04CEA030CC4F800C0B3
:100ED000DBF800C02CEA030C4C6814F4003F01D08E
:100EE0004CEA030CCBF800C0184CD4F800C02CEA34
:100EF000030C4D6815F4803F01D04CEA030CC4F894
:100F000000C0521C102AFFF41BAFBDE8F88F4FF051
:100F1000000CBEE74FF0010CBBE74FF0020CB8E746
:100F20004FF0030CB5E74FF0040CB2E74FF0050C9F
:100F3000AFE74FF0060CACE74FF0070CA9E7000055
:100F400044380240083C01400C3C0140003C014058
:100F50000148806870470000100000200248816846
:100F600002781144816070471000002010B50B48D2
:100F7000016841F400710160016841F48061016021
:100F8000016841F480710160032000F091F80020B5
:100F900000F006F800F026F8002010BD003C0240EA
:100FA00070B504460D4D4FF47A712878B1FBF0F01E
:100FB0000B490968B1FBF0F000F0EAFB08B1012031
:100FC00070BD102C07D200222146501E00F03CF8C4
:100FD0006C60002070BD012070BD0000100000207A
:100FE0000400002008B500BF002000900E480068F3
:100FF00040F480400C4908600846006800F48040D6
:10100000009000BF00BF00BF00200090081F0068D4
:1010100040F08050091F08600846006800F08050CA
:10102000009000BF00BF08BD4438024000280ADB22
:1010300000F01F01012202FA01F14009800000F1D5
:10104000E020C0F80011704710B4184B1B68C3F3C0
:101050000223C3F1070CBCF1040F01D94FF0040CBB
:101060001C1D072C01D2002300E0DB1E012404FA22
:101070000CFCACF1010C0CEA0101994004FA03F3F9
:101080005B1E1A401143002806DB00F1E020090135
:1010900080F8001410BC704700F00F0000F1E02051
:1010A000090180F8141D10BC704700000CED00E031
:1010B00000F00700064A11684FF6FF03194041EAA5
:1010C000002040F0FD7040F080601060704700002C
:1010D0000CED00E02DE9F04704460D46002C13D03E
:1010E000DFF85491D9F80000EFB200F00700A842F1
:1010F0000DD289F80070D9F8000000F00700A8426E
:1011000005D00120BDE8F0870120BDE8F087206808
:101110004A4E10F0020F14D010F0040F03D03068C4
:1011200040F4E0503060207810F0080F03D03068B1
:1011300040F4604030603068A16820F0F00008435F
:101140003060207810F0010F3ED060683C490128E3
:1011500008D002280DD003280BD0096811F0020F27
:1011600028D00AE0096811F4003F06D10120BDE84B
:10117000F087096811F0007F19D0316821F0030170
:1011800008433060FFF7E4FE80463068616800F095
:101190000C00B0EB810F17D041F2883AFFF7D8FE70
:1011A000A0EB0800504508D90320BDE8F0870120D6
:1011B000BDE8F0870120BDE8F0873068616800F085
:1011C0000C00B0EB810FE9D1D9F8000000F0070066
:1011D000A8420AD989F80070D9F8000000F0070089
:1011E000A84202D00120BDE8F087207810F0040F5B
:1011F00005D03068E16820F4E05008433060207882
:1012000010F0080F06D03068216920F4604040EAF1
:10121000C100306000F042F831680A4AC1F303119E
:10122000515CC8400849086008480068FFF7B8FEEC
:101230000020BDE8F0870000003C02400838024072
:1012400000380240F22300080400002014000020AF
:1012500001480068704700000400002000B5FFF757
:10126000F7FF04490968044AC1F38221515CC84070
:1012700000BD0000083802400224000800B5FFF756
:10128000E7FF04490968044AC1F34231515CC84090
:1012900000BD0000083802400224000810B51748BD
:1012A000006810F00C01164816D0164B042912D015
:1012B000082911D1144C216801F03F02216811F472
:1012C000800F0AD02068C0F38810A0FB0301002320
:1012D000FEF778FF09E0184610BD21680023C1F32E
:1012E0008811A1FB0001FEF76DFF2168C1F30141E8
:1012F000491C4900B0FBF1F010BD00000838024065
:101300000024F400001BB700043802402DE9F84F18
:101310000446002C12D02078FB4E10F0010FA6F1ED
:10132000040563D0301D016801F00C0104290CD0C4
:10133000006800F00C00082803D010E00120BDE890
:10134000F88F306810F4800F09D0286810F4003F3F
:101350004CD06068002849D10120BDE8F88F606852
:10136000B0F5803F14D0B0F5A02F16D0286820F437
:1013700080302860286820F480202860606810B3DE
:10138000FFF7E6FD0746286810F4003F0ED02DE079
:10139000286840F480302860F0E7286840F4802016
:1013A0002860286840F480302860E7E7FFF7D0FD28
:1013B000C01B642802D90320BDE8F88F286810F408
:1013C000003FF3D012E0FFF7C3FD0746286810F492
:1013D000003F0BD0FFF7BCFDC01B642802D90320DF
:1013E000BDE8F88F286810F4003FF3D12078C74F8C
:1013F00010F0020F4FF0000957D0C548016811F0F6
:101400000C0F14D0006800F00C00082803D13068DD
:1014100010F4800F0BD0E06880B301203860FFF734
:1014200097FD8046286810F0020F12D01EE0286851
:1014300010F0020F05D0E068012802D00120BDE8BD
:10144000F88F2868216920F0F80040EAC100286080
:101450002BE0FFF77DFDA0EB0800022802D9032056
:10146000BDE8F88F286810F0020FF2D028682169D3
:1014700020F0F80040EAC100286016E0FFE7C7F856
:101480000090FFF765FD8046286810F0020F0CD031
:10149000FFF75EFDA0EB0800022802D90320BDE89B
:1014A000F88F286810F0020FF2D1207810F0080FA2
:1014B00035D09848DFF860A26169C1B101210160AF
:1014C000FFF746FD8046DAF8000010F0020F26D143
:1014D000FFF73EFDA0EB0800022802D90320BDE87B
:1014E000F88FDAF8000010F0020FF1D017E0C0F822
:1014F0000090FFF72DFD8046DAF8000010F0020F93
:101500000DD0FFF725FDA0EB0800022802D903202B
:10151000BDE8F88FDAF8000010F0020FF1D1207862
:1015200010F0040F71D04FF000087C48006810F0F4
:10153000805F0AD17948016841F0805101600068FC
:1015400000F0805000904FF00108DFF8D4B1DBF8D4
:10155000000010F4807F1BD1DBF8000040F48070A5
:10156000CBF80000FFF7F4FC8246DBF8000010F433
:10157000807F0DD1FFF7ECFCA0EB0A00022802D916
:101580000320BDE8F88FDBF8000010F4807FF1D075
:10159000A068DFF890B1012818D005281DD0DBF82D
:1015A000000020F00100CBF80000DBF8000020F084
:1015B0000400CBF80000A06840B3FFF7C9FC8246E6
:1015C000DBF8000010F0020F14D03EE0DBF8000062
:1015D00040F00100CBF80000EDE7DBF8000040F040
:1015E0000400CBF80000DBF8000040F00100CBF86D
:1015F0000000E0E7FFF7ACFCA0EB0A0141F2883005
:10160000814204D90320BDE8F88F26E005E0DBF82D
:10161000000010F0020FEDD017E0FFF799FC8246B2
:10162000DBF8000010F0020F0FD0FFF791FCA0EBE9
:101630000A0141F28830814202D90320BDE8F88FC7
:10164000DBF8000010F0020FEFD1B8F1010F04D168
:101650003248016821F080510160A069F0B32C4943
:1016600009684FF0FF3801F00C01082966D0022804
:1016700010D0C7F86090FFF76BFC0446286810F0A4
:10168000007F2BD0FFF764FC001B022851D90320F8
:10169000BDE8F88FC7F86090FFF75AFC81462868CC
:1016A00010F0007F0CD0FFF753FCA0EB09000228DC
:1016B00002D90320BDE8F88F286810F0007FF2D12E
:1016C000216AE069A26A0843616A08EB5202890153
:1016D00041EA0241084394F82C1000E055E040EA4A
:1016E0000160306001203866FFF732FC044628684C
:1016F00010F0007F49D1FFF72BFC001B022813D903
:101700000320BDE8F88F0000043802400000474283
:1017100008380240800E4742743802404038024088
:101720000070004070380240286810F0007FE2D05E
:101730002BE0286810F0007FA4D126E0012822D0F9
:101740003068E26900F4800191421AD1226A00F007
:101750003F01914215D147F6C071626A0140B1EB79
:10176000821F0ED1A26A00F4403108EB5202B1EBA5
:10177000024F06D194F82C1000F07060B0EB016FAE
:1017800003D00120BDE70120BBE70020B9E700003E
:10179000401EB0F1807F01D3012070474FF0E0215F
:1017A0004861044AF0201070002088610720086119
:1017B0000020704723ED00E070B50446002C04D0F3
:1017C00094F83D00002510B106E0012070BD84F8BA
:1017D0003C50204600F022F8242084F83D00206888
:1017E000C16821F40051C160204600F0D3FA20689E
:1017F000016921F4904101612068416921F02A01C9
:1018000041612068C16841F40051C1602564202015
:1018100084F83D0084F83E00002070BD10B586B00D
:101820000446142101A8FEF705FD2A4920688842D4
:101830004DD100BF002000902748006840F0100004
:10184000254908600846006800F01000009000BFBD
:1018500000BF00BF002000901F481438006840F00F
:1018600002001D49143908600846006800F00200B3
:10187000009000BF00BF00BF002000900846006835
:1018800040F0010008600846006800F00100009088
:1018900000BF00BF80200190022002900020039032
:1018A000032004900720059001A90C48FFF73AFA9D
:1018B0004FF400700190022002900020039003205A
:1018C00004900720059001A90548FFF72BFA06B000
:1018D00010BD0000001001404438024000040240E6
:1018E000000002402DE9F84304460E4615461F4607
:1018F00094F83D00202802D00220BDE8F883C6B14C
:10190000BDB194F83C00012816D0012084F83C00B9
:101910004FF00009C4F84090212084F83D00FFF703
:1019200017FB8046A584E584A068B0F5805F06D0EB
:1019300007E00120BDE8F8830220BDE8F8832069B4
:1019400080B13546002684F83C90E08CB8B143461F
:10195000002280212046009700F09AFA20B103204F
:10196000BDE8F8830025EEE7A5B121682878486036
:101970006D1CE08C401EE084E08C0028E7D14346DB
:10198000002240212046009700F082FA48B103204F
:10199000BDE8F88330882168C0F308004860B61CB1
:1019A000E7E7202084F83D000020BDE8F88300BF71
:1019B000FEE7000010B50E480E490860032048609D
:1019C00000210C488160C1604FF4102101614FF487
:1019D000001141610021017641768176C17601775F
:1019E0004177FEF7AEFF08B1FEF7B1FC10BD000075
:1019F00000640040C800002010B50E480E49086081
:101A00000320486000210C488160C1604FF4102120
:101A100001614FF400114161002101764176817628
:101A2000C17601774177FEF78CFF08B1FEF78FFC96
:101A300010BD000000680040F000002008B500BFA5
:101A4000002000901D48006840F002001B4908601B
:101A50000846006800F00200009000BF00BF00BF11
:101A6000002000900846006840F001000860084629
:101A7000006800F00100009000BF00BF00BF002020
:101A800000900846006840F00800086008460068BA
:101A900000F00800009000BF00BF00BF00200090D1
:101AA0000846006840F0800008600846006800F0C2
:101AB0008000009000BF00BF08BD00003038024029
:101AC00010B50B480B4908604FF4E1304860002125
:101AD00008488160C16001610C2141610021816180
:101AE000C161FFF769FE08B1FEF731FC10BD0000CF
:101AF000001001401801002000BFFEE7704770474A
:101B000000B50246B0EE401AF0EE601A11EE100A6F
:101B1000D06011EE900A9061D06800EE100A9069D2
:101B200000EE900A30EE600A10EE100AD063D06B1F
:101B300000EE100A106C00EE900A30EE600A10EE13
:101B4000100A1063D06B00EE100AB5EEC00AF1EE79
:101B500010FA03DDD06B00EE100A04E0D06B00EE4B
:101B6000100AB1EE400AD06C00EE900AB4EEE00A22
:101B7000F1EE10FA42DDD06B00EE100A106800EEB4
:101B8000900A20EE200A10EE100A1062D06900EED2
:101B9000100AD06B00EE900A30EE200A10EE100A08
:101BA000D061906800EE100A106B00EE900A20EEF3
:101BB000200A10EE100A9062104600F0A9FA506850
:101BC00000EE100AD06900EE900A20EE200A10EE16
:101BD000100A5062106A00EE100A506A00EE900A75
:101BE00070EE200A906A00EE100A30EE800A10EEC5
:101BF000100AD062104600F0AEFA02E0104600F083
:101C0000A1FB90695061D0681061106B5063D06B7C
:101C10001064D06A00EE100A00BD10B52DED068BE1
:101C20000446B0EE408AF0EE608AB0EE419AF0EEE3
:101C3000619AB0EE42AAF0EE62AA54212046FEF765
:101C4000F9FA0020206518EE100A206018EE900ABC
:101C5000606019EE100AA06019EE900A60641AEE36
:101C6000100AA0641AEE900AE064BDEC068B10BD69
:101C7000704710B5FFF772F910BD000000B593B0C2
:101C8000302107A8FEF7D6FA142102A8FEF7D2FAEF
:101C900000BF002001902448006840F08050224995
:101CA00008600846006800F08050019000BF00BF47
:101CB00000BF002001901D48006840F480401B498F
:101CC00008600846006800F48040019000BF00BF33
:101CD000012007900004089002200D9041050E910C
:101CE00006210F91A8211091022111910421129136
:101CF00007A8FFF70BFB08B1FEF729FB0F200290A6
:101D000002200390002004904FF4A05005904FF45F
:101D100080500690052102A8FFF7DCF908B1FEF714
:101D200016FB13B000BD00004038024000700040B8
:101D30001448006840F470001249086012480068B6
:101D400040F001001049086000200F490831086088
:101D50000D4800680D4908400B4908600C48091DF2
:101D60000860081F006820F48020091F0860002018
:101D700005490C3108604FF0006002498039086065
:101D80007047000088ED00E000380240FFFFF6FEDB
:101D9000103000242DE9F041044620680169E26812
:101DA00021F44051114301612169A068E2690843AF
:101DB0006169114301432068C26822F4037222F46E
:101DC00014421143C16020684169A26921F4407145
:101DD000114341612068A0F18041B1F588312ED0D6
:101DE000A0F18041B1F58A3129D0FFF737FA844656
:101DF000E16900201927254D3226B1F5004F22D088
:101E00006068830F8200ACFB0701FEF7DBF9014637
:101E1000A5FB002040097A42424301EB820106EB18
:101E20000111A5FB0121490901F0F00202EB0010AC
:101E300001F00F01084421688860BDE8F081FFF7D8
:101E40001DFA8446D4E761684A1840EB0003ACFBF6
:101E50000701FEF7B7F90346A5FB00104109184634
:101E60000A016FF01803594300EB810006EBC00034
:101E7000A5FB0010400900F0F80102EB410100F061
:101E80000700084421688860BDE8F0811F85EB5198
:101E90002DE9F0410446069D884616461F462068F7
:101EA000006838EA00002AD00020B04231D1B5F1F4
:101EB000FF3F26D025B1FFF74BF8C01BA84220D921
:101EC00020680C3050E8001F21F4D07140E8001267
:101ED000002AF5D12068143050E8001F21F00101DC
:101EE00040E80012002AF5D1202084F83D0084F853
:101EF0003E00002084F83C000320BDE8F081012072
:101F0000D3E72068006838EA000005D00020B0421E
:101F1000CDD00020BDE8F0810120F8E700BFFEE74A
:101F20000FB4054B10B503A9044A029800F018F845
:101F300010BC5DF814FB00009D2100081C0000206F
:101F400002E008C8121F08C1002AFAD17047704782
:101F5000002001E001C1121F002AFBD170470000E0
:101F60002DE9FF4F89B09B460446002506E0252851
:101F70000BD05A460B999047641C6D1C20780028A2
:101F8000F5D10DB02846BDE8F08F0027B8460122F4
:101F9000474900E0074314F8013F203B02FA03F0F1
:101FA0000842F7D120782E2819D114F8010F47F0F4
:101FB00004072A280ED06FF02F022078A0F13001FC
:101FC00009290CD808EB880102EB410100EB01085C
:101FD000641CF2E70A98641C50F8048B0A9020787D
:101FE0000028CED0642808D0692806D075281ED0D5
:101FF0005A460B9990476D1C58E00A994FF00A0910
:1020000001C90A91002802DA40422D2102E0390577
:1020100004D52B218DF82010012103E0F90704D00D
:102020002021F7E78A4608AE0DE00021FAE70A9979
:102030004FF00A0901C90A91F7E74946FEF705F989
:10204000303106F8011D0028F7D1ADEB060000F194
:102050002009780701D44FF00108C84502DDA8EB3C
:10206000090000E000208046002706E008A85A4644
:10207000C05D0B9990476D1C7F1C5745F6DB04E053
:1020800030205A460B9990476D1CB8F10001A8F119
:102090000108F5DC05E016F8010B5A460B9990474C
:1020A0006D1CB9F10001A9F10109F4DC641C65E7BC
:1020B0000928010000B58BB001200990002007908D
:1020C0000120089000200190029003900490069057
:1020D000059001A90C48FEF7CFF90B48FEF7D5FD96
:1020E00002210948FEF734F90E200A90069001A952
:1020F0000648FEF7C1F90548FEF7C7FD022103486F
:10210000FEF726F90BB000BDC8000020F00000204B
:10211000C16900EE101A816C00EE901AB4EEE00A6C
:10212000F1EE10FA01DD816CC161C16900EE101A97
:10213000816C00EE901AF1EE600AB4EEE00AF1EE66
:1021400010FA07D2816C00EE101AB1EE400A10EEC0
:10215000101AC1617047C16A00EE101A416C00EE9E
:10216000901AB4EEE00AF1EE10FA01DD416CC162A2
:10217000C16A00EE101A416C00EE901AF1EE600A8E
:10218000B4EEE00AF1EE10FA07D2416C00EE101A3C
:10219000B1EE400A10EE101AC162704713B50C463A
:1021A0004FF6FF73012269460248FFF79BFB009838
:1021B0001CBD00001801002070B50F2400264FF44C
:1021C000E16512E00A20FEF799FD323D00231A4630
:1021D000194628B2FEF792F80A48B0F90A00B04250
:1021E00000D1641E0748B0F90A60002CEAD1002330
:1021F0001A4619461846FEF781F800200149488121
:1022000070BD00005C01002008B5FEF7AFFEFFF7CF
:1022100035FDFFF713FCFFF7CDFBFFF7EDFBFFF7F5
:102220004FFCFFF747FFDFED352A9FED352ADFED45
:10223000351A9FED351ADFED340AB2EE000A334845
:10224000FFF7EBFCF3EE042A9FED2F2ADFED301AA7
:102250009FED2D1ADFED2C0A9FED2E0A2E48FFF779
:10226000DCFC2EA0FFF75CFEFFF7A6FF3220FEF796
:1022700045FD42E02D482E498861084690ED041A3C
:10228000B8EEC11AF0EE410A90ED061AB8EEC11A86
:10229000B0EE410A2048FFF733FCBDEEC00A2448E7
:1022A00080ED070AB0F9020001EE100AB8EEC11A7B
:1022B000F0EE410A1E4890ED071AB8EEC11AB0EED2
:1022C000410A1248FFF71CFCBDEEC00A184880ED19
:1022D000080A006A00901648C3680269816915A05F
:1022E000FFF71EFE1249098C08B200231A46194650
:1022F000FEF704F81420FEF701FDBBE7000048429A
:102300000000C8420000FA44000000002000002045
:1023100000009643CDCCCC3D740000206861707005
:10232000792073746172740D0A00000000E0FEFFF2
:102330005C0100202564202564202564202564207C
:102340000D0A00009FED0F0A10EE101A0164C16320
:102350009FED0C0A10EE101A8163416301639FED3B
:10236000090A10EE101AC161816241620162C16204
:102370009FED040A10EE101A01614161C160816194
:102380007047000000000000018841F64C52914265
:102390000DDDB0F90810B1F57A7F08DAB0F9021056
:1023A000002904DA4189491E09B2418111E00188FE
:1023B000B1F57A7F0DDAB0F9081041F64C5291422E
:1023C00007DDB0F90210002903DD4189491C09B27B
:1023D000418141894FF4B47211FB02F1242291FB37
:1023E000F2F1C1600288B0F90A1002EB41310161DB
:1023F000704700000000000000000102030406070F
:102400000809000000000102030400002C24000859
:102410000000002020000000401F00084C2400089D
:102420002000002078050000501F00080000000078
:102430000024F40000000000000000000100000083
:0C24400010000000000000000000000080
:040000050800018965
:00000001FF
